:020000040800F2
:1000000010090020A1010008B7460008B936000811
:1000100000000000000000000000000000000000E0
:10002000000000000000000000000000BB460008C7
:100030000000000000000000B9460008BD460008AE
:10004000B3010008B3010008B3010008B3010008C0
:10005000B3010008B3010008B3010008B3010008B0
:10006000B3010008B30100086915000881150008F4
:10007000B3010008B3010008B30100086947000894
:10008000B3010008B3010008B3010008000000003C
:10009000B3010008B3010008B3010008BD36000831
:1000A000B3010008B3010008B3010008B301000860
:1000B000B3010008B3010008B3010008B301000850
:1000C00000F002F800F05CF812A030C808382418DC
:1000D0002D18AC4201D100F053F80FCCA246AB462C
:1000E0000CA730CF2D1B083F3F197C427F1E544484
:1000F0002D090426F441641EAC4201D300F040F8FF
:100100000126334200D0FB1A3343984754465D46DC
:10011000DFE700005853000078530000103A02D384
:1001200078C878C1FAD8520701D330C830C101D598
:1001300004680C6070470000704700000023002432
:1001400000250026103A01D378C1FBD8520700D30E
:1001500030C100D50B60704710B5662902D105F09B
:10016000D5F810BD002010BD1FB500F0ABFD040098
:100170000020002105F0B4F8E0601FBD10B510BDEF
:1001800001F06AF91146FFF7EFFF04F0BBFD01F043
:1001900082F903B4FFF7F2FF03BC01F0DDF90000C0
:1001A0000748804707480047FEE7FEE7FEE7FEE70F
:1001B000FEE7FEE704480549054A064B7047000084
:1001C00065470008C1000008100300201009002046
:1001D0001005002010050020FEB5044610460D460F
:1001E000184373D0A6468C460020A41A01469D41B0
:1001F00067D36646002701243D46B61A9D4102D3C7
:1002000013463A462124654676462F04360C3E4373
:100210002D0CB61A9D4104D3150C1B042B4312045C
:100220001034654676462F06360A3E432D0AB61A26
:100230009D4104D3150E1B022B4312020834654660
:1002400076462F0736093E432D09B61A9D4104D341
:10025000150F1B012B431201241D65467646AF077F
:10026000B6083E43AD08B61A9D4104D3950F9B00D6
:100270002B439200A41C65467646EF0776083E4362
:100280006D08B61A9D411AD392185B41641C16E0A2
:100290000018764665464941B71A9D410191009084
:1002A00009D36046B11A98418E4684460098019958
:1002B0000025401C6941DD0752082A435B08641E83
:1002C000E6D57246634603B0F0BDFFE720462843FB
:1002D00007D00020C0430146C046C04622462B46F8
:1002E000F1E700200146F7E70FB41CB5074B06AA5B
:1002F0007B4469460090059800F0CBFC00206946DD
:1003000000F0DAFC1CBC08BC04B01847C5090000AA
:10031000F3B50446002081B020622046E16888479A
:1003200000287AD0252802D06268A16871E0E168CF
:1003300020460025884706460020E0610746A06168
:100340002A2E0AD0304604F0C3FF002827D0B80078
:100350000019303E0090866119E00298BA00121927
:1003600002C8916102902046E1688847012F064645
:1003700017D1E06900281FDA202085431CE000988F
:100380000A218069484300998019303888612046E5
:10039000E1688847064604F09BFF0028EFD1012F53
:1003A0000AD02E2E08D12046E16888470646202034
:1003B00005437F1C022FC3DBA069002803DA4042FB
:1003C000A06101200543E80701D010208543002EDD
:1003D00023D030464138192803D80120C0020543F4
:1003E0002036204625603146029A1546FFF7B4FEB6
:1003F00000280BD0012806D0ED1DE808C000083009
:1004000002908AE709E02D1D029586E76268304672
:10041000A1689047206A401C7EE7206AFEBD01E08B
:1004200004C0091F0429FBD28B0701D50280801C60
:10043000C90700D00270704700290BD0C30702D053
:100440000270401C491E022904D3830702D5028092
:10045000801C891EE3E70022EEE70022DFE70000B0
:10046000002203098B4273D3030A8B4258D3030B38
:100470008B423CD3030C8B4221D312E003460B4347
:100480007FD4002243088B4274D303098B425FD38D
:10049000030A8B4244D3030B8B4228D3030C8B42B9
:1004A0000DD30902FF2212BA030C8B4202D312129F
:1004B000090265D0030B8B4219D300E0090AC30B74
:1004C0008B4201D3CB03C01A5241830B8B4201D321
:1004D0008B03C01A5241430B8B4201D34B03C01A0A
:1004E0005241030B8B4201D30B03C01A5241C30A82
:1004F0008B4201D3CB02C01A5241830A8B4201D3F3
:100500008B02C01A5241430A8B4201D34B02C01ADC
:100510005241030A8B4201D30B02C01A5241CDD281
:10052000C3098B4201D3CB01C01A524183098B42CC
:1005300001D38B01C01A524143098B4201D34B01B5
:10054000C01A524103098B4201D30B01C01A524118
:10055000C3088B4201D3CB00C01A524183088B429F
:1005600001D38B00C01A524143088B4201D34B0088
:10057000C01A5241411A00D20146524110467047FA
:100580005DE0CA0F00D04942031000D340425340FF
:100590009C46002203098B422DD3030A8B4212D3BF
:1005A0008901FC2212BA030A8B420CD389019211F1
:1005B0008B4208D3890192118B4204D389013AD02E
:1005C000921100E08909C3098B4201D3CB01C01A03
:1005D000524183098B4201D38B01C01A5241430916
:1005E0008B4201D34B01C01A524103098B4201D304
:1005F0000B01C01A5241C3088B4201D3CB00C01A71
:10060000524183088B4201D38B00C01A5241D9D288
:1006100043088B4201D34B00C01A5241411A00D209
:1006200001465241104663465B1001D34042002B05
:1006300000D54942704763465B1000D3404201B584
:100640000449002802DC491C084000E00846C04676
:10065000C04602BDFFFFFF7F704770477047000034
:100660000121C9050123411842001B06D3185B0E66
:100670000AD0C1100722D206891840075242D1423F
:1006800001D5520089187047090208D50146002A91
:1006900003D0C10FC90700207047104670474202BF
:1006A00002D0002002497047072109050143F4E701
:1006B0000000F87FF0B5FF252D04C609C209FF2709
:1006C00004462E400137CB093E4348402A402B4088
:1006D0000746002A6BD0002B69D0AA4267D0AB42F4
:1006E00065D0002800DA32460125ED0529432C4368
:1006F00009022002090AD21A4B0C7F24E31A434C48
:10070000000A7C44E35C7D242404121914145B0069
:10071000A218884201D3521C00E0400049420C4616
:100720005C4324115C43DB016415E318040A5C4359
:10073000C502200D0C4644436419250A5D4323037A
:10074000EC0C0D46654300030019EB184C42A34224
:1007500001D35B18401CD4052018002B07D05B0088
:10076000C91804D3401C002901D1400840003F2192
:1007700089048A4209D3002A08DC1106090F04D033
:10078000032149074018C00FC007F0BD01224100F6
:10079000120689187F2252069142F6D20521490796
:1007A000C84201D59010F0BDFF20C005F0BD002F5C
:1007B00000DA32461648AA4207D2AB4205D21902E5
:1007C000090E17D0F80FC007F0BDFF2563002D06F6
:1007D000AB42F9D84900A942F6D8AB4201D1A942AF
:1007E000F2D0A94201D1002101E061004908D00501
:1007F0000843F0BD1102090EFBD0FF200243D005D3
:10080000F0BD0A460146104654E70000164C0000B1
:100810000000C07F1F22030C02D10F2200041CD055
:10082000030E01D10002083A030F01D10001121F8B
:10083000830F01D18000921E002801DB4000521E70
:10084000D2055118021251181922904004D3491CA4
:10085000002801D14908490008467047C10FC9075F
:1008600000D04042012292071143D3E701218907BA
:10087000D0E70000FFB50C461E468FB003CA0890B3
:1008800009914F007D0D00D16D1E0021084600200A
:10089000C0460321099A89050840002A03DA82002C
:1008A000801840080840800D01280A9002DD0020D1
:1008B000C0430A90089807430DD0F048F049281823
:1008C00048430714189800281DD07542291E1DDDC5
:1008D0000A9842421BE01898012802D000203021DB
:1008E00004E00020F24305E02154401CB042FBDB51
:1008F00030460022189B002121540F998B600A601A
:10090000486013B0F0BDBD1B6D1CDFE70A9A0029DB
:1009100000DA69420BA800F05BFA0BAB07CB03AB24
:1009200007C30899099800F0BFFA6B4607C3014650
:10093000D4480918002D00910BDDD24903980A9A7A
:1009400049424018002303A90390684600F01CFDAB
:1009500008E003990A9A0023081803A9039068463F
:1009600000F0BCFC6B4607C30004000C03D0002061
:10097000C043410800E01046189A002A03D0002224
:10098000009215461EE0751E05D400F09FF9303226
:1009900062556D1EF9D501220843079602D0002248
:1009A0007F1C04E02078302801D100227F1E002A1D
:1009B000069787D01EE0112D07DA00F087F9303254
:1009C00062556D1C02460A43F5D1084303D00098D6
:1009D000002819D00EE00021681E05E0235C625C4F
:1009E00063542254401E491C8142F7DBA81B401E61
:1009F00007950690079A18990020A0540F98079B16
:100A0000069A81600CC07CE711260020189059E7F7
:100A1000D21DF0B50D460446D10893B0C90003C9F4
:100A20000C900D9104F03EFC02460D98C00F01D0D1
:100A30002D2007E02068810701D52B2002E0400728
:100A4000C00F4001032A0F9001D0072A05DB03469F
:100A50002946204600F078F90EE12078800601D57D
:100A6000E76900E006272846652D04D0662814D0E3
:100A7000672D69D12DE00020112F009001DB11239B
:100A800000E07B1C0CAA03A910A8FFF7F3FE119944
:100A9000002610987D1C0E9142E001203B460CAAD6
:100AA000C0070B900120009003A910A8FFF7E2FEF9
:100AB000119D12981099002600280E9501D1781CDE
:100AC0000D18781B02D446427D1C761EE81B009050
:100AD0003AE0012F00DA01270020112F009001DDFC
:100AE000112300E03B460CAA03A910A8FFF7C2FEA1
:100AF00011993D46109800260E91217809070BD4D4
:100B00000E99A94200DA0D4603A9012D04DD4A1908
:100B1000203AD27F302A06D0B84201DA011D04DA29
:100B2000012100910FE06D1EEFE7002802DC86191D
:100B30002D1A03E0411CA94200DD0D46801B401C1C
:100B400000900120C0070B902078000705D4009882
:100B5000A84202DB0020C043009069460020C87212
:100B60000B98012102AF0337C907884225D0022024
:100B700010902B2011900B9800280BDA40420B901C
:100B80002D20119006E00B9800F04EFC30317F1EB6
:100B90000B9039701099481E00291090F3DC0B98C7
:100BA0000028F0D111987F1E38702088000501D5EB
:100BB000452000E065207F1E387001A8C01BC01DC5
:100BC0000B900F98002800D0012041190098C01701
:100BD00009180B980818A169081A401EA06120780E
:100BE000C00602D42046C046C0460F98002805D053
:100BF0006268A1689047206A401C20622078C00685
:100C000025D52046C046C04621E0002E07DB0E98C1
:100C1000B04204DD03A86268805DA16802E06268FA
:100C2000A16830209047206A761C401C2062009802
:100C3000401E002800900AD100F044F8C0686268A5
:100C40000168405CA1689047206A401C20622846E9
:100C50006D1E0028D9DC07E062683878A1687F1C27
:100C60009047206A401C20620B99481E00290B9077
:100C7000F2DC2046C046C046032042E601FCFFFFEE
:100C8000104D0000E1DFFFFF01694A1C0261087896
:100C9000704700B58FB0029100210591054901937D
:100CA00079440391114604906846FFF731FB0FB079
:100CB00000BD0000E5FFFFFF0A681070521C0A60CB
:100CC0007047000000487047380000200B4670B5A0
:100CD000024689078008084319469D08141AA9414D
:100CE00025090807054308092C194841250A01066A
:100CF0000D43010A2C194141200C0D0428430D0C11
:100D000000194D41002140194D41C00869070843B1
:100D1000E908840F8D002543840024184D412419CF
:100D20006D41121BAB4107E00925ED432C1152190F
:100D300063410024401C61411C460A250026551BC6
:100D4000B441F1D270BD0000F8B51F46044601233E
:100D50000068DB02032601461840072A05DB00284D
:100D600001D017A506E017A504E0002801D016A5BC
:100D700000E016A5102081432160A069C01E002F4D
:100D8000A06101D0401EA0612046C046C046002F91
:100D900009D038466268A1689047206A401C2062EA
:100DA000C01C206206E0206AFAE762682878A16821
:100DB0006D1C9047761EF8D22046C046C046F8BD4E
:100DC0004E414E006E616E00494E4600696E6600EF
:100DD000F7B516468AB0334878446C4603467C33F0
:100DE000C06F5A689B680DC42E487844763003ACB7
:100DF0000DC80DC43720C001081837211B30FFF77C
:100E00003DFB05460C46803D1B3C02D5644201205B
:100E100000E000200027099010E0E0070CD00C2033
:100E200020497843794432464C39411868460123B9
:100E300000F054FA6B4607C364107F1C002CECD101
:100E4000184F7F442E3F16E0E80712D02001C0194A
:100E50000EC80691089307920068F04201D19819D4
:100E600008903246012306A903A800F037FA03AB25
:100E700007C36D10641C002DE6D10998002806D028
:100E800032466946012303A800F07EFA05E00123FB
:100E90003246694603A800F021FA0A9B07C30DB049
:100EA000F0BD000080450000034640000A4610B532
:100EB000400D0BD00121C9070F24A40200191C0307
:100EC00064082143540D2143D20207E00021012090
:100ED000F2E7D40F490021435200401E0029F8DAFE
:100EE000DB0FDB07184310BDFFB50D46144685B078
:100EF0004868516804F0BDF900910190A868A168A4
:100F000004F0B7F902910390A868616804F0B1F9A0
:100F1000029A12188242029201D2012000E00020BF
:100F2000019A0B18D2180028019202D08A4202D9E5
:100F300003E08A4201D2012000E000200099081855
:100F400000906868A16804F094F9029A121882422D
:100F5000029201D2012000E00020019A0B18D21861
:100F60000028019202D08A4202D903E08A4201D2CB
:100F7000012000E0002000990818009028682168EE
:100F800040004900400849084018FA49471814E051
:100F900001994000C90F0843009001980299400050
:100FA000C90F08430190029803994000C90F0843F4
:100FB0000290039840007F1E039000980028E7DA13
:100FC0000898002801D0EC4E00E00026B74201DA74
:100FD000012000E00020002804902AD0F71BF8062A
:100FE000C00E15D0029B2021091A039A8B401A4388
:100FF0000392029A019BC2408B401A430292019ACB
:10100000009BC2408B4000991A430192C14000915D
:101010007B110DD06F460320C11A03D50021820039
:10102000B95003E08A008100BA587A50401EF3D5C7
:10103000374603980299002800D001200143089800
:101040000291002808460CD0002800D00120019908
:10105000019A490508430121D20AC902D20201922C
:1010600000E001210E9B0122D207012B02D0002BB0
:1010700003D013E0002807D120E0904204D890422A
:101080000CD1019B0B4209D0019B5918019105D14C
:101090000099491C009101D17F1C009200280DD0BD
:1010A000102108460020C0460498002806D00F985A
:1010B000002803D0082108460020C046286821687F
:1010C000019B009A4840C10F0598C90739430EC0DB
:1010D00009B0F0BDFFB587B0099A08980899536820
:1010E00092684068896896460022039317469446A2
:1010F000089A12685300099A5B0812685200520855
:101100009A1A9E4BD4180A9A002A01D0352200E080
:10111000402206920022012315460492DB07059324
:1011200024E0002D05D175460346039E4D1BB341B7
:1011300009D375466646039B491B049D9841059B50
:101140007519AC465F4163463B4308D0059B049E3E
:10115000DD0776082E435B080496059301E0521ED6
:10116000641EC50FED0749184041521C069B9A4268
:10117000D7DB002D04D17546039A6B1A824101D248
:1011800003200CE0039A0B466B404240134303D00C
:10119000014303D0012002E0022000E0002061466C
:1011A00001910021009702910A99002905D061461A
:1011B00040020143704B019102E08007002302903E
:1011C0009C4201DA012000E0002007003AD01A1BFF
:1011D000D006C00E15D0029D2021019C091AC540E1
:1011E0008C402543029C8C4000D001242543019C67
:1011F0000295009DC4408D4000992C430194C1404C
:10120000009154111DD06D460221002202290CD1FB
:101210000320001B07E0002804DB8600AE59002EE7
:1012200000D00122401C0328F5DB081B02D58800F2
:101230002A5004E08000285810438A00A850491E14
:10124000E3D51C460A98002802980CD0002800D04C
:1012500001200199019A490508430121D20AC902D6
:10126000D202019200E00121109B0122D207012B42
:1012700002D0002B03D013E0002807D11FE09042DA
:1012800004D890420CD1019B0B4209D0019B591804
:10129000019105D10099491C009101D1641C009273
:1012A00000280CD0102108460020C046002F06D090
:1012B0001198002803D0082108460020C04608984D
:1012C0000999019A009B006809684840C10F079876
:1012D000C907214382600AC00BB0F0BD00B585B0DC
:1012E000019300920A460146002302A8FFF7FCFD85
:1012F00002A807C805B000BDFFB50A461F4685B065
:101300000799019301230091014602A8FFF7ECFD24
:1013100002990398049ECA0F4900D20700920F2237
:10132000490892028C1A0021002800DB0C46450077
:1013300013486D08844214D3079A002A04DA441E25
:101340000026104DF64302E004460D460E461021DD
:1013500008460020C046002F03D004210846002084
:10136000C0462005E90A0843009908436905F20AC6
:101370001143ADE602C0FFFF013C0000FF3F00004B
:10138000FF070000FFFFFF7F00B585B001930092CB
:101390000A460146002302A8FFF79CFE02A807C8E0
:1013A000A8E7FFB50A461F4685B0079901930123B8
:1013B0000091014602A8FFF78DFE02990398049E52
:1013C000CA0F4900D20700920F22490892028C1AD4
:1013D0000021002800DB0C46450011486D088442BE
:1013E00014D3079A002A04DA441E00260D4DF64352
:1013F00002E004460D460E46102108460020C04675
:10140000002F03D0042108460020C0462005E90A29
:101410000843009908436905F20A114358E60000A1
:10142000FF070000FFFFFF7F01468008081A02093E
:101430001018020A1018020C1018C00882001218A6
:101440005200891A01E0401C0A390A29FBD2704770
:1014500000487047180000207546FFF7F9FFAE46B8
:10146000050069465346C008C000854618B020B53F
:10147000FEF7A0FE60BCB64600260027C0C5C0C56A
:10148000C0C5C0C5C0C5C0C5C0C5C0C5403D490870
:1014900049008D46704710B50446C046C0462046F8
:1014A000FEF777FE10BD000082078B079A423FD1FE
:1014B00070B5920F0AD0032402780B78401C491CA7
:1014C000002A33D09A4231D12042F5D1214EF40185
:1014D00004C808C9951B9543254018D19A420FD1DD
:1014E00004C808C9951B9543254010D19A4207D1DD
:1014F00004C808C9951B9543254008D19A42E7D0F6
:1015000012BA1BBA01209A4200D2404270BD12BAF0
:101510001BBA2DBA18241000E0401900E140401A0F
:1015200005D12E00E64002D1083CF4D1D01A70BD9E
:1015300002780B78401C491C002A09D09A4207D136
:1015400002780B78401C491C002A01D09A42EFD047
:10155000D01A70470101010101491820ABBEFEE716
:10156000260002007047000080B5034800F03AF8FA
:10157000024800F037F880BD1C010020D400002094
:1015800080B5024800F02EF880BDC04664010020FE
:10159000EFF3108072B6FEE7B0B5014624314A7809
:1015A000022A18D1026813680E24A343136013683B
:1015B0000125AB431360026C436C1C241C402B467A
:1015C000A340536000240C704D70816B002900D043
:1015D00088472046B0BD0421C1630120B0BD25214C
:1015E000405C7047F0B585B0026C416C1C240C4027
:1015F00004252946A140039213680A4602931A4023
:1016000057425741049003681A68164601952E40C8
:10161000754275413D432FD00193012302271146A6
:10162000394048424841A740029E37421D4619466C
:10163000234600D0014604980446243400292BD0C8
:1016400008210A4057425741DE40310700D53D4648
:10165000002D1FD1019D2A680E218A432A60012294
:1016600011469940039B5960C2630021217062704A
:10167000416B00290DD10DE01868800603D418686D
:10168000019A90431860039841600498016B002907
:1016900000D0884705B0F0BD019D2968890605D4B2
:1016A0002A680A218A432A60012161700021217081
:1016B00003994F60C16A0029EBD1EBE7F0B585B023
:1016C000002841D004460546243502206870204891
:1016D000206426681F483018142103F0CFFC8000D6
:1016E0000090606431681C4B0B40A268E168276978
:1016F00060690190A0690290E0690390206A0490FB
:101700001943394301980143029801430398014367
:1017100004980143114331600121880382420DD0B6
:101720001C20009E06400F20B0400C4A13688343E3
:1017300013606068B0401368034313600020E063E7
:101740002870697005B0F0BD012005B0F0BDC0463D
:1017500000000240F8FFFDBF0F80FFFFA80002401D
:10176000B0B5044600F0DCF80546601C02D0044821
:101770000078241800F0D4F8401BA042FAD3B0BD82
:1017800008000020F0B58AB007900B68002B00D14C
:10179000B3E00E465A480799814201D0062000E086
:1017A00005200B210907079A52180A21CA41019204
:1017B000052A00D30190079820300090002215469A
:1017C0001746029619460BE021434E4801607F1CE4
:1017D00031680846F840121DAD1C002800D18CE08D
:1017E00001231846B8400140F1D0059306920391B9
:1017F000324603263146A9400495CD4351680C4634
:101800003440631E012B0895099110D807998B6805
:101810002B40D668049DAE401E438E60099AD306C5
:10182000DB0FBB404E6886431E434E6006E0032C30
:10183000049D03D13446029E069A1DE00799C868AC
:10184000089A1040029EB368AB400343CB60022C61
:10185000069A11D11C2010400F218140FB089B00EB
:10186000009AD4588C43316981402143D150069A63
:101870007068032409900440AC4007990868089BED
:1018800018402043086009988003800F059B9ED074
:101890001D490868184308600C2010400F21814042
:1018A00003233C469C43194BE3588B4301998140E9
:1018B000194316482150134881687068C30202D545
:1018C000039C214301E0039CA1430E4B9960D9681E
:1018D000830201D5214300E0A1430A4BD960596836
:1018E000830301D5214300E0A143064B59601968E9
:1018F000C00300D568E7A14367E70AB0F0BDC04662
:10190000001C005000040140341002400800014057
:10191000002A02D018228150704728228150704737
:10192000014800687047C04608030020B0B5024671
:10193000034640335C780220202C17D11C78012C00
:1019400014D024205870106802680124A243026059
:10195000220305689543056002680A430260016836
:10196000214301600020187020215970B0BDB0B52E
:101970000246034640335C780220202C17D11C78A5
:10198000012C14D024205870106802680124A2434E
:1019900002600F2212020568954309022943016083
:1019A0000168214301600020187020215970B0BDEA
:1019B00070477047F0B581B00122150201688B694C
:1019C0001C462C40664266410F6880243C406742BA
:1019D0006741374304D1466C012737434764CD61E3
:1019E000654265415E05164600D52E46002E05D19E
:1019F0009502466C082737434764CD6165426541CF
:101A00009B05134609D4002B0AD0416C0B221142CE
:101A100001D001F0D3FE01B0F0BD2B46002BF4D174
:101A20005202436C02241C434464CA61416C0B2281
:101A30001142EED1EFE780B502689169436B1268FD
:101A4000002B00D0984780BD70470000F0B581B0F2
:101A5000002822D0054640356978002905D10021AB
:101A60002970044600F036F9204624216970016887
:101A70000B68012293430B600F231B0644689C43B1
:101A80000C618C681C4B1C408C608468C668012EFD
:101A900006D1D60334438C600CE0012001B0F0BDC8
:101AA0002127BF023C438C60022E03D1D4024E6832
:101AB000264302E0D4024E68A6434E604C680F4EA7
:101AC00026434E60CC681C40CC60036944691C43CB
:101AD00083691B022343CB60C369046A1C430C6007
:101AE0000B6813430B600021416420226A7001637C
:101AF0000846A97001B0F0BDFF7FFFFF0080000223
:101B000070470000F0B587B005460446403466785B
:101B10000220202E00D0B8E02678012E00D1B4E0BB
:101B2000049303920691012005902070FFF7F8FEC0
:101B3000074628688169090418D4212161701021A1
:101B4000A17000216964049A6A85039A6A6202910D
:101B50006963012105914E06698D090A584A049668
:101B600021D0FF232B850126360620E00598C603E9
:101B700002E081693142E0D0192128463A4602F05C
:101B8000B7F8002876D1FFF7CBFEC11B28681A29C9
:101B9000EFD381693142ECD0686C2021084368643E
:101BA000617001207CE06B8D2B85002B7DD0039A2A
:101BB00011788162698D491E6985511C404A6962AC
:101BC000591E298506991140DBB21B04591831436F
:101BD00043683C4E33400B430121490319434160A4
:101BE0000C9E688D002848D00698104006900499F5
:101BF000014304910EE0688D288529684A68324BBC
:101C00001A40C0B20004049B184310434860688D1A
:101C1000002832D0284631463A4602F0F9FC002826
:101C200028D12868696A0A788262688D401E6885B2
:101C3000481C6862288D401E2885698D0029E6D0E1
:101C40000004E4D10097802100222846334602F0A8
:101C50001FFC00280ED1688D000ACCD0FF202885FB
:101C600028684168184A1140069A1143174A1143DF
:101C70004160CCE7059807B0F0BD284631463A46AA
:101C800002F083FC0028059801D007B0F0BD286859
:101C90002021C16142680E4B13404360617002987D
:101CA00000212170A17007B0F0BD06991140436872
:101CB000044E33400B4304990B4305998DE7C0460E
:101CC000FF030000009800FC009C00FC0000FF01E6
:101CD00000E800FEF0B587B004460026069605969B
:101CE00004960396029600682C49884201D007B0FA
:101CF000F0BD2B4D286801273843286028683840FC
:101D00000190062000900690049612200390032074
:101D100005904002029001980520000702A9FFF7F4
:101D200031FD7805E9680143E9601E4D80271E48B2
:101D30001430286000986860AE60EE602F616E61BC
:101D4000AE61EE612E622846FFF7B8FC002801D094
:101D5000FFF71EFCAC62E563144D102012492960A8
:101D60000099696029460831C1C16E61AE61EE61BA
:101D70002E622846FFF7A2FC002801D0FFF708FCDE
:101D8000AC62A5631724002120460A4600F06AF8D9
:101D9000204600F05BF807B0F0BDC046005400409C
:101DA0002C100240D40000201C0002401C01002026
:101DB000704770471D48007802490A68101808608B
:101DC0007047C0460803002010B50848016840224B
:101DD0000A4302600024204600F00AF8002801D0DF
:101DE000012010BD00F026F8204610BD0020024062
:101DF00070B504467D20C0000C4E317803F03EF9EA
:101E000001460B48006803F039F900F083FD012515
:101E1000032C08D8002806D10025E84321462A468D
:101E200000F020F87460284670BDC046080000200D
:101E300010000020044801680122114301601107CD
:101E400042680A434260704734100240002805D4BB
:101E50001F21084001218140014801607047C046B0
:101E600000E100E0002805D40322034693430A4A18
:101E70009A1803E00C220240064BD2188007C00ECD
:101E80008901C9B28140FF23834010689843084309
:101E90001060704714ED00E000E400E0F0B589B098
:101EA000066801252F02EA0211462031874B0E42B7
:101EB0007CD0059208902907143B186808400490CC
:101EC00002D118680843186001930291804C206881
:101ED000384211D1206838432060FFF721FD0646C3
:101EE0002068384208D1FFF71BFD801B6428F7D912
:101EF0000325284609B0F0BD0326340573484C3845
:101F0000069001682140089B5868024603942240CD
:101F10000096340491420AD102462240A242069E13
:101F20000DD19A68039B1A40914205D107E0014602
:101F30002140A142069E02D131688903D9D4634B66
:101F400059680794214021D0079A1040814203D05C
:101F50000898007880060AD408988068079A10408C
:101F6000814213D008980068059908420ED058683D
:101F7000E9045A680A435A605A688A435A6001461B
:101F8000079A91435960384200D08CE0089806685F
:101F900005990E42079C59D1B1066DD404990029C8
:101FA00004D1019C2168029A91432160F1070DD16F
:101FB000B10713D4710719D4310720D43E4227D179
:101FC00071062ED40025310693D535E01968032219
:101FD0009143C2680A431A60B107EBD519680C2215
:101FE000914302690A431A607107E5D5032189020A
:101FF0001A688A434169114319603107DED503210C
:1020000009031A688A438169114319603E42D7D097
:10201000032109041A688A43C169114319607106D2
:10202000D0D5012189061A688A43416A1143196093
:102030000025310600D45CE703218A041968914326
:10204000006A08431860284609B0F0BD826811464E
:102050002140A1420BD10398024003231B05069D9A
:102060002C689C43194B089814432C60079C5A68B1
:102070000A435A60B10691D5426811462140A142F7
:102080000AD10398024003231B05069D2C689C433C
:102090000E4B089814432C605A680A435A600499FE
:1020A000002983D17DE7FFF73BFC0546884C074BB1
:1020B0005868800500D569E7FFF732FC401BA04255
:1020C000F5D9009D284609B0F0BDC0464C1002402D
:1020D00000700040F0B583B0002846D00E46029054
:1020E0007A480068012101910840864216D9774953
:1020F00008680125A84330430860754CFFF710FCC1
:102100000746724800682840B04207D0FFF708FC35
:10211000C01BA042F5D9032003B0F0BD029D286882
:102120008107794C05D52168F0229143AA680A43BA
:102130002260C0071CD165480068012738408642EC
:1021400024D262490868B8430860614CFFF7E8FB95
:1021500005465E480068C00718D0FFF7E1FB401B4A
:10216000A042F6D9032003B0F0BD012003B0F0BDBA
:102170006A6821460C390968012A34D0032A2DD017
:10218000022A72D1890301982BD52FE0029B18688F
:1021900041075D4C06D50721090222688A43D968A8
:1021A00011432160000707D50720C0022168814341
:1021B0001869C0000843206021680807820F6E4834
:1021C0007A441279520097440154735B38042146D3
:1021D000083909680904490F884069E089010198B4
:1021E00004D403B0F0BD49070198FAD52168032053
:1021F0000190814311432160FFF792FB0746686815
:10220000334D03282BD002281ED001280AD1206884
:102210000C21014004298ED0FFF782FBC01BA8428D
:10222000F5D909E020680007800F00D183E7FFF7A8
:1022300077FBC01BA842F5D9019803B0F0BDFFF7AA
:102240006FFBC01BA842F7D820680C210140082969
:10225000F5D170E7FFF764FBC01BA842ECD82068FB
:102260000C2101400C29F5D165E789050198B8D505
:10227000BCE720460C380068C00612D5414817E07C
:102280008A02120F3D4B9A5C0902890F491C236890
:10229000DB0309D420460C380068C00603D5394852
:1022A00002E0374804E036484243104602F0E6FEBA
:1022B00021680906090F074A515CC84011490860A6
:1022C00005480068FFF794FD03B0F0BD0020024010
:1022D00088130000F05300080C0000200948006833
:1022E000094909684905490F084A515CC8407047C7
:1022F00004480068044909688904490F034A515C8D
:10230000C8407047100000200C1002400054000824
:1023100010B5844BD9680807820F17487A441279A0
:10232000520097440108070D012000045968090470
:10233000490F884010BD1868C00614D5114810BD5B
:102340008A02120F0D4CA25C0902890F491CDC683D
:10235000E40303D41868C00607D50A484243104670
:1023600002F08CFE10BD064810BD054842431046E1
:1023700002F084FE10BDC04600127A00145400081A
:102380000024F40000093D00F0B589B0002855D0C4
:10239000644EF1680C220A4006920121059109045D
:1023A000F76804910F4007900078C00710D0069896
:1023B000082806D006980C2800D0D5E0002F00D1C0
:1023C000D2E03068800303D507984068002850D0D9
:1023D000079B1878800734D41878C0064CD4079827
:1023E0000078000766D407990878400700D59BE07D
:1023F0000878800600D51EE10798846A002C1AD060
:1024000006980C2800D067E1012C32D0F068049ABD
:102410000240079BD96A8A422BD10F2189040140CF
:102420001A6B914225D1032189050840596B8842D6
:10243000059800D057E2002009B0F0BD012009B096
:10244000F0BDD868810604D531682022114331607F
:1024500090430699042906D006990C2900D0A9E0DA
:10246000002F00D0A6E0316800283AD104221140A4
:1024700037D0059809B0F0BD012044020699002923
:1024800000D1ADE03168079AD2690002002A00D17C
:1024900001E101433160FFF743FA0546306820420D
:1024A00000D008E1FFF73CFA401B0228F6D90320D0
:1024B00009B0F0BD306D07994969002900D1D9E014
:1024C000012108433065FFF72BFA0546306D800780
:1024D00089D4FFF725FA401B0228F7D9032009B059
:1024E000F0BD1F21090272688A431969090211436C
:1024F000716031680922914301433160F168080736
:10250000820FFA485200C0467A449288520097449B
:1025100003002401DA013B0170680004410F0498B4
:102520008840D0E10010024001221107B06B084042
:10253000029002D1B06B0843B06301910392140280
:10254000F14F3868C00523D4386820433860FFF75E
:10255000E7F90546386820421AD1FFF7E1F9411B37
:1025600003206429F6D9BEE1306807994968049AC6
:10257000914209D005221204914200D0CDE0059984
:102580008904084330603068049908433060D3E020
:1025900007988168306D039B5F02002900D12BE111
:1025A00005221202914200D120E1A14200D037E180
:1025B00020433AE13168002800D1D3E00922914359
:1025C00001433160FFF7ACF905463068400700D59C
:1025D00002E1FFF7A5F9411B03200229F5D982E1A9
:1025E0003168214204D00799C969002900D17AE1F4
:1025F0000720400371688143079B586A014371605B
:10260000FF21090672688A43196A090689187160F0
:10261000400B04998140F0680006000FB74A105C37
:10262000C140B7480160B7480068FFF7E1FB0028E8
:1026300000D058E1D3E6B06807998969002900D134
:10264000B4E001210843B060706B08437063480335
:10265000AF490A6802430A60FFF762F90546B068AD
:10266000800700D5C8E6FFF75BF9411B032002296C
:10267000F5D938E1012188433065FFF751F9054666
:10268000306D800700D4AEE6FFF74AF9411B032006
:102690000229F5D927E181433160FFF741F9054669
:1026A0003068204200D19AE6FFF73AF9411B032037
:1026B0000229F5D917E10720400371688143079A81
:1026C000506A08437060FF20000671688143106AF9
:1026D00000064018706082E60120010632688A43D5
:1026E00032604706FFF71CF90546022C0AD1306814
:1026F000384200D1C4E0FFF713F9411B032002293F
:10270000F5D9F0E03068384200D194E6FFF708F9D7
:10271000411B03200229F5D9E5E0049A904330607B
:102720003068104008900898059880043268824309
:102730003260002900D193E005984404FFF7F0F8D7
:1027400005463068204200D042E6FFF7E9F8401B1A
:102750006428F6D9032009B0F0BD3068C0067DD5E5
:102760006548B0E0012081433160FFF7D9F80546A4
:1027700030684007079B00D42EE6FFF7D1F8411BD5
:1027800003200229F4D9AEE08A02120F584B9A5C5A
:102790000902890F491CF368049C234200D08EE093
:1027A0003068C00600D489E0534888E0012188439E
:1027B000B060480356490A6882430A60FFF7B0F8E0
:1027C0000546B068800700D416E6FFF7A9F8411B5C
:1027D00003200229F5D986E01F2000027168814399
:1027E000079B1869000208437060F5E599020843E9
:1027F0003065306D204318E0A04330659802316D9C
:1028000081433165FFF78CF80546404C306D384206
:102810001AD0FFF785F8411B0320A142F6D962E0E8
:10282000A04330659902306D88433065FFF778F832
:102830000546364C306D384206D1FFF771F8411B22
:102840000320A142F6D94EE002980028079900D053
:10285000CEE5B06B019A9043B063C9E5254832E0FC
:1028600005984404FFF75CF805463068204200D123
:10287000AEE5FFF755F8411B03206429F5D932E096
:10288000FD200004F1688143079B2C330DCB0843E6
:1028900010431843F0602948401C316801433160FF
:1028A000FFF73EF804463068384200D0C3E5FFF732
:1028B00037F8011B03200229F5D914E00D484243E3
:1028C000104602F0DBFBF1680906090F0B4A515C68
:1028D000C8400B4908600B480068FFF789FA0028D8
:1028E000079B00D178E509B0F0BDC04600127A0020
:1028F000145400080024F40000093D00F0530008BF
:10290000100000200C000020007000408813000020
:1029100020000140401E010E01D0012070470749F0
:10292000074A5060074803680B400321890759187C
:10293000016000209060072111607047FFFFFF00D9
:1029400010E000E020ED00E010B53822825C012AA2
:1029500001D1022010BD02463832022353700068B4
:1029600043687024A3430C681C4383684460414C53
:10297000A04207DC0124A407A04209D06A4CA0426F
:1029800006D00AE03C4CA04202D03C4CA04204D10C
:102990008024A343496819438160002010700121FD
:1029A000517010BD3822825C012A01D1022070478B
:1029B0000346383300221A700068016510467047DC
:1029C000B0B5002819D0054638356978002905D1F9
:1029D00000212970044600F053F820460221697056
:1029E00001680C68234B994209DC0122920791424D
:1029F0000BD04D4A914208D015E00120B0BD1E4ACF
:102A0000914202D01D4A91420DD1702294438268B6
:102A1000224399420ADC01239B0799420CD0424B86
:102A2000994209D024E022469942F4DD124B9942A2
:102A300002D0124B99421BD103231B029A43036914
:102A40001343C268CA6242688A620A680424144353
:102A50000C6001224A618024A34340691843086046
:102A6000AA71AA70EA702A716A716A700020B0BDFA
:102A70001346E6E7FF07014000140140000801404B
:102A8000F0B587B000250695059504950395029548
:102A90000168254A914240D00127BA07914241D1AD
:102AA0000090029721480168394301600C380168A1
:102AB0003943016000683840019002200690059576
:102AC0000495039001980520000702A9FEF75AFE1D
:102AD000174C25622020B9023A0280230827154EA0
:102AE000C0C425606560A360E26021616061083C4C
:102AF0002046FEF7E3FD002801D0FEF749FD0098CF
:102B00000462A0620F24002120460A46FFF7AAF9BA
:102B10002046FFF79BF907B0F0BD04480168022288
:102B20000A43026007B0F0BD0004004038100240C4
:102B30006401002058000240F0B53822825C012A6E
:102B400001D10220F0BD0246383202235370504EAC
:102B50003346773B0468A0681840A0600D680023E6
:102B60004F2D1FDC1F2D36DD202D38D0302D36D0D7
:102B7000402D00D087E0206A256A0126B5432562F2
:102B8000A569F026B543CE6836012E43A6610A2515
:102B9000A843496801432162A068472101433020CE
:102BA00081436AE06F2D26DD01204703BD4257D0E7
:102BB0000003854218461AD0702D64D1A0683040B9
:102BC0004D688E68C9682E43090231430143A160F4
:102BD000A068772150E0002D01D0102D53D1A068BE
:102BE00070218843054307202843A06018461370CE
:102BF00001215170F0BD502D1BD0602D43D1256AAD
:102C00001020C043266A064026620F263603A769B5
:102C1000B743CE6836033E43A661A026B543496854
:102C2000090129432162A16867250D430540A5607C
:102C300024E0206A256A0126B5432562A569F026AD
:102C4000B543CE6836012E43A6610A25A8434968DC
:102C500001432162A06857210143202081430CE0F9
:102C6000A56835404E688F68C96837430902394303
:102C70002943A1608003A1680143A1601846137035
:102C800001215170F0BD0120137001215170F0BD80
:102C9000FF00FFFFF0B581B00446007E012840D15F
:102CA000214DEE6800272046394600F0CCFB002E6F
:102CB00006D0686029688842009704D9461A06E061
:102CC000286001212CE004D2401A18494618AE6051
:102CD00000E0AE6816480168164802F0F1F9FDF709
:102CE000BDFD07463046FDF7C1FD01463846FDF7FC
:102CF000E1FC2861FDF7B4FC02460B46284626306D
:102D00000DA1FDF7F1FA2869FDF7AAFC02460B4672
:102D1000284614300EA1FDF7E7FA206800994162B9
:102D2000E96001B0F0BDC04678000020FFFF000060
:102D3000000000200048E8014672657175656E6309
:102D4000793A20252E346620487A0D0A00000000CA
:102D5000252E326620487A2020000000F0B582B08F
:102D60003823C35C012B02D1022002B0F0BD034620
:102D700038330224E241032A00D986E07A441279EA
:102D800052009744015E15370268146A156A0120E3
:102D900085431562CD68019560C900969769AD4E6F
:102DA0000839B24276DC8607B24279D0AC4E75E083
:102DB0000068026A01242402056AA54305624C6882
:102DC000F025AC43CD682D01EDB22C19C569F32671
:102DD000B5432543C56105246402A2430C680A2556
:102DE00025402C0212190262C2690C24A243C2615E
:102DF000896824E00068026A01242403056AA54367
:102E000005624C682402364D2540CC682403A4B2E8
:102E10006419F3252D02C669AE432643C661052415
:102E20006403A2430C680A2525402C031219026290
:102E300003229202C4699443C461896809021C3068
:102E400045E00068026A046A1025AC4304624C68DD
:102E50002402234D2540CC682403A4B26419F32531
:102E60002D028669AE43264386610C682401A025A5
:102E70002C40AA43121902620322920284699443ED
:102E8000846189680902183021E00120002119704D
:102E900002B0F0BD704EB24202D0704EB24202D1CA
:102EA000032087430098074310461830F026B743A5
:102EB000019E3601F6B2BE1996610A263540B4432A
:102EC0006419146294690C25AC43946189680268A2
:102ED0000A43026000200021197002B0F0BDC04614
:102EE000000FFFFFB0B5002819D0054638356978C6
:102EF000002905D100212970044600F04DF8204634
:102F00000221697001680C68524B994209DC012268
:102F1000920791420BD0C34A914208D015E001209C
:102F2000B0BD4D4A914202D04C4A91420DD170221F
:102F300094438268224399420ADC01239B07994209
:102F40000CD0B84B994209D024E022469942F4DDD6
:102F5000414B994202D0414B99421BD103231B02A2
:102F60009A4303691343C268CA6242688A620A6864
:102F7000042414430C6001224A618024A343406965
:102F800018430860AA71AA70EA702A716A716A709F
:102F90000020B0BD1346E6E77047000002463A3213
:102FA00000290DD0042906D008290FD13C23C35C89
:102FB000012B0FD039E03B23C35C012B35D109E055
:102FC0001378012B31D1022313700DE03D23C35C34
:102FD000012B2AD10223082903D0042903D15370DD
:102FE00002E0937000E0D37002230A46DA41032A1C
:102FF0001BD89200164B9A580068C3681343C360ED
:103000001F221140012213468B40016A994301623D
:10301000016A194301620F49884208DC910788421E
:103020000BD08049884208D00CE0012070470A4943
:10303000884202D00949884204D1816807230B40A5
:10304000062B02D001681143016000207047C04682
:1030500020540008FF07014000140140000801400F
:1030600000040040F0B585B004460068C56802273A
:10307000294639404A424A410169049139404B424C
:103080004B41134340210291C9430391002B13D1BB
:1030900003993E310161012121768069800703D0C7
:1030A0002046FFF7F7FD05E0204600F0BDF820467A
:1030B00000F0C7F90020207601260422294611409D
:1030C0004842484104994907314600D5014603204A
:1030D00000020190002916D10092206803993C312A
:1030E0000161277680690199084203D02046FFF7E5
:1030F000D1FD05E0204600F097F8204600F0A1F948
:1031000000202076009A0827294639404842484145
:1031100004990907314600D50146002913D12068DA
:103120000399383101612276C069800703D02046B7
:10313000FFF7B0FD05E0204600F076F8204600F0ED
:1031400080F9002020761021294048424841049906
:10315000C906314600D50146002914D120680399DB
:10316000303101612776C0690199084203D02046B9
:10317000FFF790FD05E0204600F056F8204600F0ED
:1031800060F90020207601212940484248410499F5
:10319000C907314600D00146002906D120680399AD
:1031A0003F310161204600F04DF902980540684228
:1031B00068410499490603D4002E04D005B0F0BD3F
:1031C0000646002EFAD1206803990161204600F0DE
:1031D00045F905B0F0BD000080B586B0002105912D
:1031E00004910391029101910068944A904201D0A8
:1031F00006B080BDCC48026801231A430260006813
:103200001840009002200590049103910290402004
:10321000019005200007009901A9FEF7B3FA06B056
:1032200080BDC046000400407047000070B53823E0
:10323000C35C012B01D1022070BD03463833022448
:10324000E241032A00D994E07A441279520097446B
:1032500001651F400068026A056A0126B5430562E0
:103260004568866945607325AE430D6835438561C1
:103270004D684563A2438C68144304628269082444
:103280001443846182690424A2438261C96868E0AE
:103290000068026A01242502066AAE430662456898
:1032A000C66945607325AE430D683543C5614D68F9
:1032B000C5636402A2438C68240214430462C26999
:1032C00008241443C461C2690424A243C261C968CA
:1032D00022E00068046A01221503066AAE43066212
:1032E0004568C669456073252D02AE430D682D0201
:1032F0003543C5614D6805645503AC438D682D03A6
:1033000025430562D402C5692543C5619202C4699B
:103310009443C461C96809021C3023E00068026A52
:10332000046A1025AC4304624468856944607324D0
:103330002402A5430C6824022C4384614C688463F6
:103340002024A2438C682401144304620122D40285
:103350008569254385619202846994438461C968C3
:103360000902183002680A43026000200021197027
:1033700070BD01200021197070BD0000B0B500289B
:1033800019D0054638356978002905D10021297002
:10339000044600F055F820460221697001680C6867
:1033A000234B994209DC0122920791420BD0234A18
:1033B000914208D015E00120B0BD1E4A914202D0D2
:1033C0001D4A91420DD17022944382682243994252
:1033D0000ADC01239B0799420CD0184B994209D073
:1033E00024E022469942F4DD124B994202D0124B5E
:1033F00099421BD103231B029A4303691343C268FA
:10340000CA6242688A620A68042414430C6001227A
:103410004A618024A343406918430860AA71AA70D6
:10342000EA702A716A716A700020B0BD1346E6E73F
:10343000FF07014000140140000801400004004063
:103440007047704770470222D141032904D8890090
:1034500000684018406B7047002070477047B0B557
:1034600000281DD00446C06F002805D17820002117
:103470002154204600F02AF82420E06720680168E3
:103480000125A9430160606A002802D0204601F0AE
:1034900073F9204601F042FA002803D02846B0BD57
:1034A0000120B0BD0920C00221684A6882434A60F9
:1034B00088682A22904388600868012202430A60D3
:1034C000204601F0C3F905462846B0BD10B586B0C8
:1034D0000021059104910391029101910068114A24
:1034E000904201D006B010BD012042040E4BDC68B2
:1034F0001443DC601A6802431A601A6802400092A2
:1035000004200590032004900391022002900C20D7
:10351000019005200007009901A9FEF733F906B0D4
:1035200010BDC046004400402C100240F0B585B0EC
:103530000446C06F202810D1012000290BD0002A9A
:1035400009D001200503A668AE4209D1CE0707D0F5
:103550002669002E04D105B0F0BD022005B0F0BDF3
:103560000193029127465037204684300021039171
:1035700001602120E0671646FEF7D2F904907E80B4
:103580003E80A068A84202D1206900285ED0029D3A
:10359000019E039A2168788800285ED0701C454BF4
:1035A0002ED0002E49D00392C869000608D4FEF739
:1035B000B7F90499401AB04266D821680868F3E761
:1035C000002D03D0287888626D1C07E0039A1088CC
:1035D000384B18408862921C039200257888401E60
:1035E000788078880028DFD137E01088184088621A
:1035F000921C00257888401E7880788800282CD07E
:10360000C869000608D4C869000605D4C869000660
:1036100002D4C8690006F3D5002DE6D02878886268
:103620006D1CE7E7108818408862921C0025788896
:10363000401E7880788800280FD0C869000621D500
:10364000002DEFD0287888626D1CF0E70025029AE3
:10365000019E216878880028A0D1CA6900205206FE
:1036600013D4002E0ED0721C13D1CA6952060CD48A
:10367000CA69520609D4CA69520606D4CA695206F2
:10368000F3D502E0FEF74CF903202021E16705B0F5
:10369000F0BD0546FEF744F90499401AB042F3D84C
:1036A00020680168C0694006F4D528462021E167FA
:1036B00005B0F0BDFF010000FEE7000080B507483F
:1036C000006880694005400F03D00448FEF772F996
:1036D00080BD0248FEF7AFF980BDC046AC010020B6
:1036E00080B5806A816B002901D000228A6301467F
:1036F0004031C26B002A01D0002393634A78602ACC
:1037000007D120224A7000220A700263FEF750F9A6
:1037100080BD00220A700263FEF796F980BD0000AA
:10372000F0B581B006464036717828220A40056817
:10373000282A1DD1A969AC69AB68EA680092FE220B
:10374000240CC903C90FC768022F17D1DF096740CE
:103750007C07A40F1ED0009B1340002232702A6801
:10376000B824A2432A601A46FEF723F901B0F0BD3F
:10377000002030700820E86101B0F0BD00233370F4
:103780002B68B826B3432B6014402246FEF711F98C
:1037900001B0F0BD826C521C8264826C022AEBD1B3
:1037A000054C1A4622400023836433700823EB61E2
:1037B000FEF7FFF801B0F0BDFF03000070B504464E
:1037C000054640356A780020A870504BE36260855A
:1037D000636C0B4363646978283A022A16D86B78C5
:1037E00028200340F622D6433246B032282B134617
:1037F00000D033460140282900D0324621680E68A7
:1038000016401E400E606870414829E069782168C2
:103810000A68FE239A430A608A69920706D48A6975
:10382000D20707D06A78602A0BD119E088628A69CA
:10383000D207F7D18A69012313438B616A78602A22
:103840000ED020226A708B699B0609D58B69DB0636
:1038500005D51023CB61636C04261E436664CA61E0
:103860006063A06B226B00281CD0212A01D0112A92
:1038700018D10A68520404D5012292030B689343BD
:103880000B60FDF7ACFE01281FD000202870A06B54
:1038900020498163FDF780FE002828D0A06B816B52
:1038A000884770BDE06B00280FD0222A01D0122A71
:1038B0000BD10A68120404D50122D2030B6893438A
:1038C0000B60FDF78CFE012812D16878602808D1C2
:1038D000202068700020287020632046FEF768F8DA
:1038E00070BD0020287020632046FEF7ADF870BD43
:1038F00000202870E06B07498163FDF74DFE00282A
:10390000F5D0E06B816B884770BDC0460000FFFFBB
:1039100095420008E1360008F0B585B00D46044632
:1039200003681968C06A02902646403677782020DE
:103930000390D861F7223A40F420C043212A019035
:1039400005D0222A05D10746083F222207E0871F1B
:1039500005E0282F08D17078019F0A3F0022707877
:1039600018683840186022630122D703586804970A
:10397000384358605868BA4F07405F6098698007BD
:1039800011D49869C00713D097034804009716D440
:10399000049801421CD01868049FB8431860E76B74
:1039A000002F12D114E0002098629869C007EBD173
:1039B000986910439861970348040097E8D5186800
:1039C000B8431860A76B002F02D038684068608544
:1039D00068070FD5606A5B6A0370606A401C6062AA
:1039E00004208543238D002B04D0581E2085608D34
:1039F000401E6085608D002803D0606C0423034363
:103A000063641027E80643D5394041D0608D002813
:103A10000ED02068C761606C042101436164914845
:103A20000299014234D1616C2046FFF7C7FE2FE0B6
:103A300070788D4B28287FD15006029981427BD126
:103A4000E36200202063039971706063B0706907BE
:103A500012D5616A2268526A0A70616A491C616201
:103A6000218D002908D0628D521E6285491E218554
:103A7000616C04220A4362647178717821680A6873
:103A8000FE239A430A603070CF612046FEF738F873
:103A900002970027B7706763606C002831D0616CB3
:103AA0002046FFF78BFE7078282866D16E48E062CA
:103AB0002763039870706763B770680712D5606AF0
:103AC0002168496A0170606A401C6062208D00288C
:103AD00008D0618D491E6185401E2085606C0421DF
:103AE000014361647078707820680168FE22914318
:103AF000016037700299C1612046FEF701F805B0F8
:103B0000F0BDE06A584DA8420BD1707803997170EE
:103B10003770276322282DD12046FEF749F905B0DA
:103B2000F0BD20680168B770009A114227D1049A4D
:103B3000114228D06D4923E070782168CF6129288F
:103B4000A6D102989842A3D08869800701D50020A9
:103B500088628869C007009B02D188691043886128
:103B60000A680020B0701A4245D1049B1A4246D020
:103B70005E4A41E02046FEF71CF905B0F0BD5A4907
:103B800002680A400260717829290BD128217170DE
:103B900021222263377072780A40282A10D0019AB5
:103BA000921C0FE071782A291BD1282171702222E2
:103BB0002263377072780A40282A0AD0019A0AE0F4
:103BC000019AB2320168114001602046FEF7F1F817
:103BD00007E0019AB0320168114001602046FEF70B
:103BE000E7F8E56203987070377027632046FDF7A9
:103BF00087FF05B0F0BD3C4A0B6813400B6072783C
:103C0000292A0BD128227270212323633070707807
:103C10001040282811D00198801C10E072782A2AC0
:103C200000D035E728227270222323633070707829
:103C3000104028280AD001980AE00198B2300A689A
:103C400002400A602046FEF7B4F821E70198B03040
:103C50000A6802400A602046FEF7AAF818E7C04644
:103C600000E800FEFFFFFFFE0000FFFFB0B50168A7
:103C70000C680246403200239370650403D4240488
:103C800005D51A4C00E0184C0D6825400D6054789D
:103C9000292C0CD1282454702125056313705378E6
:103CA0002340F422D243282B16D0921C15E05478DE
:103CB0002A2C10D1282454702225056313705378C0
:103CC0002340F422D243282B00D1B0320B6813409A
:103CD0000B60FEF76DF8B0BDB2320B6813400B609D
:103CE000FEF767F8B0BDC046FFBFFFFFFF7FFFFFD5
:103CF000F0B585B00E4604464030049020688169D6
:103D0000C90606D400210F4601258269D30543D494
:103D100046E01021C1618169890635D4711C30D01B
:103D200015460120002E6AD186030390C703FDF7D4
:103D3000F7FD206842680499897883693B4209D07D
:103D4000324007D1202905D0416831434160FDF759
:103D5000E7FD054620688169890605D4FDF7E0FD89
:103D6000401B1A28F6D375E081698906DFD50BE080
:103D70008169890608D48169890605D48169890623
:103D800002D481698906F3D52021C161012704216C
:103D900001258269D30503D52B02C36129432F4630
:103DA0006B02560506D41A420AD1002F0BD100200F
:103DB00005B0F0BDAD02C561082529431A4202D005
:103DC000C361022211438269920701D500228262F7
:103DD0008269D20703D18269012313438361426858
:103DE000214B13404360606C0843606420200499B9
:103DF0004870002008708870012005B0F0BD810374
:103E000002910390C0030190019F02E0816989063D
:103E1000BAD4FDF785FD411B2068B142F6D942684E
:103E20000499897883693B420BD0029B1A4008D1E0
:103E3000202906D04168029A11434160FDF770FDC8
:103E40000546206881698906E0D4FDF769FD401BBD
:103E50001A28F6D3206881692421039F01258269ED
:103E6000D30599D49CE7C04600E800FEF0B581B0C8
:103E70000446FDF755FD31280BD83021204600F0CF
:103E800075F90021204600F071F9FDF749FD32284F
:103E9000F3D3F14E3068F14901F0F0F87D21CD0007
:103EA000294641434008081AEA4F39683A688A1A95
:103EB00082420BD23A688A1A824207D23A688A1A38
:103EC000824203D23A688A1A8242EFD339683A684A
:103ED0008A1A82420BD23A688A1A824207D23A6818
:103EE0008A1A824203D23A688A1A8242EFD3396828
:103EF0003A688A1A82420BD23A688A1A824207D2F8
:103F00003A688A1A824203D23A688A1A8242EFD306
:103F100039683A688A1A82420BD23A688A1A82420F
:103F200007D23A688A1A824203D23A688A1A8242CF
:103F3000EFD339683A688A1A82420BD23A688A1AF1
:103F4000824207D23A688A1A824203D23A688A1AAF
:103F50008242EFD33021204600F008F900212046AC
:103F600000F004F93068BD4901F088F82946414362
:103F70004008081A39683A688A1A82420BD23A68AD
:103F80008A1A824207D23A688A1A824203D23A686F
:103F90008A1A8242EFD339683A688A1A82420BD26F
:103FA0003A688A1A824207D23A688A1A824203D24F
:103FB0003A688A1A8242EFD339683A688A1A82428A
:103FC0000BD23A688A1A824207D23A688A1A824227
:103FD00003D23A688A1A8242EFD339683A688A1A59
:103FE00082420BD23A688A1A824207D23A688A1A07
:103FF000824203D23A688A1A8242EFD30095396826
:104000003A688A1A82420BD23A688A1A824207D2E6
:104010003A688A1A824203D23A688A1A8242EFD3F5
:104020003021204600F0A2F80021204600F09EF842
:104030003D683068894901F021F8962141434008E4
:10404000081A3968691A81420BD23968691A8142A3
:1040500007D23968691A814203D23968691A8142E4
:10406000EFD300252046294600F080F82026204680
:10407000314600F07BF82046314600F077F8802189
:10408000204600F073F82046294600F06FF8C02162
:10409000204600F06BF82046294600F067F86021C2
:1040A000204600F063F86000684904220A540818AA
:1040B000082141702046294600F058F8102120467A
:1040C00000F054F864480068644900F0D7FF009994
:1040D00041434008081A39683A688A1A82420BD26A
:1040E0003A688A1A824207D23A688A1A824203D20E
:1040F0003A688A1A8242EFD339683A688A1A824249
:104100000BD23A688A1A824207D23A688A1A8242E5
:1041100003D23A688A1A8242EFD301B0F0BDC0469A
:10412000B0B50C2343430C4CE3189B7A9A4200D958
:104130005A1ED2B2920009A39A5C8D1880222A439B
:10414000F0211140044600F011F82807010E204626
:1041500000F00CF8B0BDC046085400080000000094
:10416000400000001400000054000000F0B589B0C9
:104170000F464100354A511805914978394306AA3E
:104180001170642600960C2141433148401845685F
:10419000007A44000123019328462146FDF7B2FC32
:1041A00005984078029738430421014307AA11700B
:1041B00004960096039528462146019BFDF7A2FC34
:1041C000244F3E6824480068244900F057FF410806
:1041D0004000411A0598401C3A68B21A8A420BD234
:1041E0003A68B21A8A4207D23A68B21A8A4203D2AD
:1041F0003A68B21A8A42EFD3FB21029A0A40007849
:10420000104308AA107004980090012303982146D7
:10421000FDF778FC3C6810480068104900F02EFF5C
:10422000322141434008081A3968611A81420BD291
:104230003968611A814207D23968611A814203D212
:104240003968611A8142EFD309B0F0BDD000002077
:104250000854000818E000E01000002040420F0061
:1042600070B50E78002E13D004464D1C012030434B
:10427000F12101402046FFF779FF3001401CC1B217
:104280002046FFF773FF681C2E78002E0546EDD1FF
:1042900070BD0000F0B581B04023C45CC36A012C3E
:1042A00002D1022001B0F0BD044640340125257042
:1042B0000A4096061CD4D60620D4510732D41107E2
:1042C00000D582E0910715D5418D002900D1CDE0C0
:1042D0000168426A13788B62511C4162018D491E4C
:1042E0000185418D491E41850020207001B0F0BD3F
:1042F000FFF712FB0020207001B0F0BD428D002AB4
:1043000030D001681022CA61416C04220A43426421
:104310005B490B42EED1416CFFF750FA0020207050
:1043200001B0F0BD418D00290CD0416A0268526A8B
:104330000A70416A491C4162018D491E0185418D07
:10434000491E4185418D0029D4D14E498B42D1D09F
:1043500001680B680022A2705D0450D41B0452D582
:104360004A4B4DE06678474A282E34D16E06B34258
:1043700031D1C26200220263202363704263A270C3
:10438000490712D5416A03685B6A0B70416A491C90
:104390004162018D002908D0438D5B1E4385491E73
:1043A0000185416C04230B434364617861780168A3
:1043B0000B68FE25AB430B6022701022CA61FDF72B
:1043C0009FFB0020207001B0F0BDFFF7A9F900208D
:1043D000207001B0F0BD667801681027CF61292EEA
:1043E00088D1934286D08A69920701D500228A62D9
:1043F0008A69D2073ED18A692A438A613AE0224B10
:104400000D681D400D606378292B0CD12823637043
:1044100021250563227065781D40F422D243282DA2
:104420001AD0921C19E063782A2B00D062E7282367
:10443000637022250563227065781D40F422D24303
:10444000282D00D1B0320B6813400B60FDF7B0FC93
:104450000020207001B0F0BDB2320B6813400B6039
:10446000FDF7A7FC0020207001B0F0BD04490B420D
:1044700000D03FE7FFF7FAFB0020207001B0F0BD4D
:10448000FFFFFFFE0000FFFFFFBFFFFFFF7FFFFFFB
:10449000F0B585B00D460446006880690840401AB2
:1044A00041424141002604928A4223D11F460A9A82
:1044B000581C03922BD0002F029433D100262046A3
:1044C0003146FFF715FC002828D1FDF729FA2068AE
:1044D00081692940491B4A424A4104999142039A01
:1044E00044D080692840401B4142414104988842A1
:1044F000029CE3D0304605B0F0BD206880692840BA
:10450000401B4142414104988842039AF2D100265F
:10451000F1432046FFF7ECFB0028EED001263046A1
:1045200005B0F0BD019507E080692840401B41427D
:10453000414104988842DDD13446029E30463946D6
:104540001546FFF7D5FB0028E8D1FDF7E9F9411B37
:104550003068B9422A462646019DE5D9816929403D
:10456000491B4B424B4104999942DDD1029B1846AD
:104570004030596C2022114359644270002101706F
:1045800081700126304605B0F0BDF0B581B005461A
:10459000006880690024800622D416460F46002950
:1045A00003D129E0806980061AD42846394632466C
:1045B000FFF79EFB002827D1FDF7B2F9811B286881
:1045C000B942EFD981698906ECD428464030696C3C
:1045D000202211436964427000210170817001241E
:1045E000204601B0F0BDFDF79BF928688169890676
:1045F000EBD580698006F3D4002428462146324654
:10460000FFF776FB0028EED00124204601B0F0BD74
:10461000F0B581B00546006880690024800716D493
:1046200016460F46481C19D0002F26D100242846D4
:1046300021463246FFF75CFB002838D1FDF770F9C0
:1046400028688169890728D580698007EED52046CA
:1046500001B0F0BD286880698007F8D40024E143E8
:1046600028463246FFF744FB0028F3D001242046B9
:1046700001B0F0BD80698007E9D42846394632464A
:10468000FFF736FB002812D1FDF74AF9811B286895
:10469000B942EFD981698907ECD428464030696C6A
:1046A000202211436964427000210170817001244D
:1046B000204601B0F0BDFEE77047704780B5FDF7BA
:1046C00079FB80BD70B59EB010AC38212046FBF759
:1046D000C4FE00250F950E950D950C950B9501A820
:1046E0002821FBF7BAFE0326F0021D490A6882431F
:1046F00001201390C302D2180A601B9502211A915F
:1047000010221492109181051D9180041C90204666
:10471000FDF73AFE002803D0EFF3108072B6FEE7F3
:104720000F950E950D950C960F200B900BA801215F
:10473000FDF7D0FC002803D0EFF3108072B6FEE73F
:10474000079505950A20019001A8FDF7A7FB002811
:1047500003D0EFF3108072B6FEE71EB070BDC04606
:10476000007000407047000080B50248FEF77AFCF8
:1047700080BDC04600020020B0B5416A0A070CD4D3
:10478000CA0714D18A071CD44A0724D4CA062CD4D9
:104790008A0634D44A063CD44CE00122D203036892
:1047A0005C689443426B22435A60CA07EAD00122F4
:1047B000520403685C689443826A22435A608A0701
:1047C000E2D50122120403685C689443C26A224362
:1047D0005A604A07DAD50122920403685C68944360
:1047E000026B22435A60CA06D2D501221203036823
:1047F0009C689443826B22439A608A06CAD5012240
:10480000520303689C689443C26B22439A604A0631
:1048100010D501221305026854689C43056C2C4393
:1048200054609D4206D103235B0554689C43436C4E
:1048300023435360090607D50121C9040268536860
:104840008B43806C18435060B0BD0000F0B583B05E
:104850000446064678360025F560FDF761F8034604
:1048600020680168090721D502952B480090012591
:104870006905002220461F4600F066F9002812D084
:10488000EFF3108085F3108821680A6880239A432B
:104890000A6080F31088032020227C21029D625050
:1048A000357003B0F0BD20683B46029D00684007AC
:1048B00026D5194800900127B9050022204600F0AE
:1048C00043F900281CD0EFF3108087F310880921EA
:1048D0004901226813688B43136080F31088EFF35B
:1048E000108087F3108821688A68BA438A6080F351
:1048F00010880320202280216250357003B0F0BD63
:104900002020E067B060256664212A462846625070
:10491000357003B0F0BDC046FFFFFF01F0B581B0B8
:10492000044601680868764A0240A0682369034388
:10493000606918431043E26910430860032630039E
:104940004B688343E06818434860A5696D4B994202
:1049500002D0206A284300E028460B252D028F68EC
:10496000AF4307438F606848814214DD00276748E2
:1049700081421FD0664881421CD06648814243D1A3
:104980006648C06C8007000F66A52F580125E80314
:10499000994213D13DE06048814205D0994233D11C
:1049A0005E48C06C000A01E05C48C06C0C25054004
:1049B0005B4847590125E80399422AD0824212D127
:1049C000082F00D996E0C0467F443F797F00BF445E
:1049D000043C4691529191917300FDF77FFC0028B1
:1049E00000D069E085E0082F00D983E07F443F795B
:1049F0007F00BF44042F3A7F457F7F7F7200FDF721
:104A00006DFC002869D174E010270125E803994264
:104A1000D4D1082F6ED8C0467F443F797F00BF4471
:104A2000046909690F6969693500FDF757FC0028B9
:104A30002CD15EE039480068C00626D53E4825E006
:104A4000FDF766FC002821D153E0FDF751FC00285A
:104A500032D14EE0FDF74CFC00283ED149E02F4812
:104A60000068C00627D5344826E02C480068C006F8
:104A700032D5314831E0FDF74BFC00281CD138E03D
:104A8000FDF746FC002828D133E02A4862685643E7
:104A9000B0422FD3110388422CD8010E56080002D1
:104AA000002380195941FBF797FB25494118254AF6
:104AB00091421CD31EE01F48400061684A0810184C
:104AC00000F0DCFA0246103A1C498A4212D2014038
:104AD0000007400F08430AE0164861684A081018AA
:104AE00000F0CCFA01461039144A914202D22168F2
:104AF000C86000250020A066E066284601B0F0BD31
:104B0000F369FFEF00480040FF4B0040004C0040BD
:104B100000500040003801400044004000100240B6
:104B200050540008010000000400000002000000D2
:104B3000080000000024F40000093D00F0FF000020
:104B400000FDFFFF00FD0F00F0B585B01F461546C4
:104B50000E460368D9693140891B4A424A41002107
:104B6000954222D10A9C002C22D00391611C24D1B1
:104B7000D9693140891B4A424A41954231D1D969AC
:104B80003140891B4A424A4195422AD1D969314074
:104B9000891B4A424A41954223D1D9693140891B38
:104BA0004A424A419542E3D01BE0084605B0F0BDB9
:104BB000FCF7B6FE032005B0F0BD402E049001D0F6
:104BC000802E14D1FCF7ACFEC01BA0420CD8049878
:104BD00000680168C0693040801B414241418D42FC
:104BE000F0D0039805B0F0BD032005B0F0BD7830DB
:104BF000019001200090C002029006E0C869304098
:104C0000801B414241418D42EBD1FCF789FEC11B23
:104C10000320A1423ED8049909680A685207EDD5DD
:104C2000CA69120738D4CA69029B1A42E6D0029AAE
:104C30000A62EFF31082012181F3108809235B01DE
:104C4000049C246825689D43256082F31088EFF357
:104C5000108281F31088049B1B689C688C439C60C5
:104C6000049B82F310881A6E012A0BD1EFF3108295
:104C700081F3108819680B681024A3430B60049B10
:104C800082F310882021019CA16000221A669A6696
:104C90002270E16005B0F0BD08250D62EFF31081D0
:104CA000009880F3108809225201049B1B681C683D
:104CB00094431C6081F31088EFF3108180F3108817
:104CC000049A1268936883439360049B81F310886D
:104CD000196E01290CD1EFF31081012282F31088A3
:104CE0001A6813681024A3431360049B81F310888F
:104CF0002021019A91600021196699661170D56092
:104D000005B0F0BD8EB0FDF75FF8FFF7DBFC0024C7
:104D100007940694059404940394C64D28680421CE
:104D2000084328602868084008900898286880216F
:104D300008432860286808400890089828680127D8
:104D4000384328602868384008900898052000906B
:104D500000070290202101912246FCF7D9FD05941D
:104D600021200004049078030390B34803AE314639
:104D7000FCF708FD069405940497019803900298A7
:104D80003146FCF7FFFC6868384368606868384063
:104D9000039003980A25284621462246FDF762F82B
:104DA0002846FDF753F80B25284621462246FDF7F5
:104DB00059F82846FDF74AF8A0480C21E122520292
:104DC0009F4B036042608460C46004614161846100
:104DD000C46104624462FEF742FB002803D0EFF393
:104DE000108072B6FEE7009D96489749974A026088
:104DF000021D92C2046144618461C4610462FCF7D3
:104E000025FE002803D0EFF3108072B6FEE78D4830
:104E10000021FCF78BFD002803D0EFF3108072B661
:104E2000FEE7884800242146FCF7A1FD002803D0B6
:104E3000EFF3108072B6FEE785488649BA07864BC5
:104E40001B685B1E1CC0016044608460069405946E
:104E500004940D940C940C38FDF7B2FD002803D097
:104E6000EFF3108072B6FEE73E030396784803A97D
:104E7000FDF762FE002803D0EFF3108072B6FEE764
:104E800002967348FEF72EF8002803D0EFF3108047
:104E900072B6FEE76E480CA9FDF756FD002803D058
:104EA000EFF3108072B6FEE70B940A94099708940A
:104EB000674808A92246FDF751FF002803D0EFF309
:104EC000108072B6FEE76548654FAA0162494968DD
:104ED000491E0760416084600192C26004614461C0
:104EE0000694059404940D940C94FDF769FD002834
:104EF00003D0EFF3108072B6FEE702980390574894
:104F000003A9FDF719FE002803D0EFF3108072B655
:104F1000FEE75248FEF732FA002803D0EFF3108084
:104F200072B6FEE74D480CA9FDF70EFD002803D030
:104F3000EFF3108072B6FEE70B940A940994602098
:104F40000890464808A92246FEF770F9002803D0C9
:104F5000EFF3108072B6FEE740480421FDF722FD12
:104F6000002803D0EFF3108072B6FEE73B4E3046C8
:104F7000FEF732F97D6330462146FEF70FF83448DC
:104F80002146FEF70BF82046FEF770FF204621462B
:104F90002246FFF7C5F833492046FFF761F90122A1
:104FA00020462146FFF7BCF82FA12046FFF758F90D
:104FB000E443294F06E021461F394018786027490D
:104FC000096888622A4E3146263131221B48234621
:104FD000FEF7ACFA01985030FCF7C2FB00252846DA
:104FE00029462A46FFF79CF828461E49FFF738F95C
:104FF000012228462946FFF793F814362846314601
:10500000FFF72EF94B20C000FCF7AAFB7868029945
:1050100088421849D1DC0199C03188421649CCDC5C
:105020008028C8DC402801DDE11FC6E701282146B1
:10503000C3DAC7E72C1002400008005080020020AD
:1050400000440040AC010020221A104000540040EF
:1050500000020020FFFF00000000002040020020AE
:10506000000400406054000857616974696E67006D
:105070007800002000F0FFFF00FEFFFF43088B4296
:105080001AD3002203098B4279D3030A8B425ED3E1
:10509000030B8B4242D3030C8B4227D30902FF221E
:1050A00012BA030C8B4202D31212090203D0030B73
:1050B0008B4233D31AE0D3E0411A8041401C704741
:1050C00003460B4371D443088B42F5D300220309F6
:1050D0008B4254D3030A8B4239D3030B8B421DD32B
:1050E000030C8B4202D394466EE0090AC30B8B4239
:1050F00001D3CB03C01A5241830B8B4201D38B03E4
:10510000C01A5241430B8B4201D34B03C01A524188
:10511000030B8B4201D30B03C01A5241C30A8B42CB
:1051200001D3CB02C01A5241830A8B4201D38B02B6
:10513000C01A5241430A8B4201D34B02C01A52415A
:10514000030A8B4201D30B02C01A5241CDD2C309CC
:105150008B4201D3CB01C01A524183098B4201D348
:105160008B01C01A524143098B4201D34B01C01A33
:10517000524103098B4201D30B01C01A5241C308AB
:105180008B4201D3CB00C01A524183088B4201D31A
:105190008B00C01A524143088B4201D34B00C01A06
:1051A0005241411A524110007047CA0F00D0494283
:1051B000031000D34042534000229C4603098B4217
:1051C0002DD3030A8B4212D38901FC2212BA030A9F
:1051D0008B420CD3890192118B4208D38901921121
:1051E0008B4204D3890137D0921100E08909C309A9
:1051F0008B4201D3CB01C01A524183098B4201D3A8
:105200008B01C01A524143098B4201D34B01C01A92
:10521000524103098B4201D30B01C01A5241C3080A
:105220008B4201D3CB00C01A524183088B4201D379
:105230008B00C01A5241D9D243088B4201D34B0094
:10524000C01A5241411A00D20146524110466346EB
:105250005B1000D34042704763465B1000D340426E
:1052600001B50021004201D0C9430846C046C046EE
:1052700002BDF8B5040C8BB2264682B25E431046DE
:1052800058430D0C370C360400218019164679411D
:105290006E43370C36048019264679416E438919CE
:1052A000F8BD00004900CA020243100000D00420EB
:1052B0004A0D01D001221043044A490D914201D107
:1052C00002210843012800D105207047FF07000094
:1052D00030380A2801D201207047002070470000B2
:1052E00010B500290AD00878002807D0054878446E
:1052F000FCF7DAF8002801D0002010BD02487844FD
:1053000010BD00009E0100009601000003B4024899
:105310007844844603BC6047FDB6FFFF81828384E6
:1053200085868788898B8C8D8E8F919293959697A1
:10533000999A9C9D9FA0A2A3A5A7A8AAACAEB0B223
:10534000B3B5B7B9BCBEC0C2C5C7C9CCCED1D4D71E
:10535000D9DCDFE2E6E9ECF0F3F7FAFE0240000008
:10536000000000A00000000005400000000000C890
:10537000000000000C4000000000409C0000000005
:10538000194000000020BCBE0000000034400000B6
:10539000BFC91B8E00000004B5400000504BCFD0A9
:1053A0006607E2CF010000006C4100003E8251AA76
:1053B000DFEEA73401000000D9420000DCB5A0E216
:1053C0003A301F97FFFFFFFFB4450000FD25A0C83E
:1053D000E9A3C14FFFFFFFFFFF3F00000000008077
:1053E00000000000FF3F00000000008000000000FF
:1053F0000000000000000000010203040607080985
:10540000000000000102030400000000AC010020C5
:1054100027100200030406080C10182030000000BA
:10542000020000000400000008000000100000005E
:10543000FDFFFFFFFBFFFFFFF7FFFFFFEFFFFFFF9A
:10544000FFFDFFFFFFFBFFFFFFF7FFFFFFEFFFFF8A
:10545000000000000400000002000000080000003E
:105460004672657175656E63793A0000A85400084C
:1054700000000020180000001C010008C0540008B3
:1054800018000020F80800003C0100081C00000083
:1054900043000000F8FFFFFF0C0000000E000000BA
:1054A0000F0000002E0000001000000000000100AE
:1054B00001000000040000000000200000000000C7
:04000005080000C12E
:00000001FF
